{
  "contractName": "Ballot",
  "abi": [
    {
      "inputs": [
        {
          "internalType": "uint8",
          "name": "_numProposals",
          "type": "uint8"
        }
      ],
      "payable": false,
      "stateMutability": "nonpayable",
      "type": "constructor"
    },
    {
      "constant": true,
      "inputs": [],
      "name": "vote",
      "outputs": [
        {
          "internalType": "string",
          "name": "",
          "type": "string"
        }
      ],
      "payable": false,
      "stateMutability": "pure",
      "type": "function"
    }
  ],
  "bytecode": "0x608060405234801561001057600080fd5b506040516101713803806101718339818101604052602081101561003357600080fd5b81019080805190602001909291905050505061011d806100546000396000f3fe6080604052348015600f57600080fd5b506004361060285760003560e01c8063632a9a5214602d575b600080fd5b603360ab565b6040518080602001828103825283818151815260200191508051906020019080838360005b8381101560715780820151818401526020810190506058565b50505050905090810190601f168015609d5780820380516001836020036101000a031916815260200191505b509250505060405180910390f35b60606040518060400160405280600f81526020017f53616c7574204875676f21203a4444000000000000000000000000000000000081525090509056fea265627a7a72315820d848ab5e28103838942680908705e4d8f27b02e2ceb2d5f4d1aa658990c06f9f64736f6c634300050c0032",
  "source": "pragma solidity >=0.4.22 <0.6.0;\ncontract Ballot {\n\n    struct Voter {\n        uint weight;\n        bool voted;\n        uint8 vote;\n    }\n    struct Proposal {\n        uint voteCount;\n    }\n\n    mapping(address => Voter) voters;\n    Proposal[] proposals;\n\n    /// Create a new ballot with $(_numProposals) different proposals.\n    constructor(uint8 _numProposals) public {\n    }\n\n\n    /// Give a single vote to proposal $(toProposal).\n    function vote() public pure returns(string memory) {\n        return \"Salut Hugo! :DD\";\n    }\n}",
  "sourcePath": "/home/esteban/Documents/ESGI/2.1-Blockchain/DemocraVote/contracts/Ballot.sol",
  "compiler": {
    "name": "solc",
    "version": "0.5.12+commit.7709ece9.Emscripten.clang"
  },
  "schemaVersion": "3.0.19",
  "updatedAt": "2019-12-04T11:09:44.989Z",
  "networkType": "ethereum",
  "devdoc": {
    "methods": {}
  },
  "userdoc": {
    "methods": {
      "constructor": "Create a new ballot with $(_numProposals) different proposals.",
      "vote()": {
        "notice": "Give a single vote to proposal $(toProposal)."
      }
    }
  }
}