{
  "contractName": "Ballot",
  "abi": [
    {
      "inputs": [
        {
          "internalType": "address[]",
          "name": "candidates",
          "type": "address[]"
        }
      ],
      "payable": false,
      "stateMutability": "nonpayable",
      "type": "constructor"
    },
    {
      "constant": false,
      "inputs": [
        {
          "internalType": "address[]",
          "name": "votes",
          "type": "address[]"
        }
      ],
      "name": "vote",
      "outputs": [],
      "payable": false,
      "stateMutability": "nonpayable",
      "type": "function"
    },
    {
      "constant": false,
      "inputs": [],
      "name": "processVoteResult",
      "outputs": [],
      "payable": false,
      "stateMutability": "nonpayable",
      "type": "function"
    },
    {
      "constant": true,
      "inputs": [],
      "name": "getWinner",
      "outputs": [
        {
          "internalType": "address",
          "name": "",
          "type": "address"
        },
        {
          "internalType": "uint256",
          "name": "",
          "type": "uint256"
        }
      ],
      "payable": false,
      "stateMutability": "view",
      "type": "function"
    },
    {
      "constant": true,
      "inputs": [],
      "name": "getCandidatesList",
      "outputs": [
        {
          "internalType": "address[]",
          "name": "",
          "type": "address[]"
        }
      ],
      "payable": false,
      "stateMutability": "view",
      "type": "function"
    },
    {
      "constant": true,
      "inputs": [
        {
          "internalType": "address",
          "name": "candidate",
          "type": "address"
        }
      ],
      "name": "getCandateVoteCount",
      "outputs": [
        {
          "internalType": "uint256",
          "name": "",
          "type": "uint256"
        }
      ],
      "payable": false,
      "stateMutability": "view",
      "type": "function"
    },
    {
      "constant": true,
      "inputs": [],
      "name": "getVotersAddressList",
      "outputs": [
        {
          "internalType": "address[]",
          "name": "",
          "type": "address[]"
        }
      ],
      "payable": false,
      "stateMutability": "view",
      "type": "function"
    },
    {
      "constant": true,
      "inputs": [],
      "name": "getOwner",
      "outputs": [
        {
          "internalType": "address",
          "name": "",
          "type": "address"
        }
      ],
      "payable": false,
      "stateMutability": "view",
      "type": "function"
    }
  ],
  "bytecode": "0x608060405234801561001057600080fd5b50604051610d13380380610d138339818101604052602081101561003357600080fd5b810190808051604051939291908464010000000082111561005357600080fd5b8382019150602082018581111561006957600080fd5b825186602082028301116401000000008211171561008657600080fd5b8083526020830192505050908051906020019060200280838360005b838110156100bd5780820151818401526020810190506100a2565b50505050905001604052505050336000806101000a81548173ffffffffffffffffffffffffffffffffffffffff021916908373ffffffffffffffffffffffffffffffffffffffff16021790555060008090505b81518110156101f75760006001600084848151811061012b57fe5b602002602001015173ffffffffffffffffffffffffffffffffffffffff1673ffffffffffffffffffffffffffffffffffffffff16815260200190815260200160002081905550600282828151811061017f57fe5b602002602001015190806001815401808255809150509060018203906000526020600020016000909192909190916101000a81548173ffffffffffffffffffffffffffffffffffffffff021916908373ffffffffffffffffffffffffffffffffffffffff160217905550508080600101915050610110565b5050610b0b806102086000396000f3fe608060405234801561001057600080fd5b506004361061007d5760003560e01c8063893d20e81161005b578063893d20e8146101985780638df4ce6b146101e25780638e7ea5b2146101ec578063ed0813291461023d5761007d565b806339567b0b146100825780634aba5f34146100da5780634e7921f814610139575b600080fd5b6100c46004803603602081101561009857600080fd5b81019080803573ffffffffffffffffffffffffffffffffffffffff1690602001909291905050506102b6565b6040518082815260200191505060405180910390f35b6100e26102ff565b6040518080602001828103825283818151815260200191508051906020019060200280838360005b8381101561012557808201518184015260208101905061010a565b505050509050019250505060405180910390f35b61014161038d565b6040518080602001828103825283818151815260200191508051906020019060200280838360005b83811015610184578082015181840152602081019050610169565b505050509050019250505060405180910390f35b6101a061041b565b604051808273ffffffffffffffffffffffffffffffffffffffff1673ffffffffffffffffffffffffffffffffffffffff16815260200191505060405180910390f35b6101ea610444565b005b6101f46105d0565b604051808373ffffffffffffffffffffffffffffffffffffffff1673ffffffffffffffffffffffffffffffffffffffff1681526020018281526020019250505060405180910390f35b6102b46004803603602081101561025357600080fd5b810190808035906020019064010000000081111561027057600080fd5b82018360208201111561028257600080fd5b803590602001918460208302840111640100000000831117156102a457600080fd5b90919293919293905050506107ec565b005b6000600160008373ffffffffffffffffffffffffffffffffffffffff1673ffffffffffffffffffffffffffffffffffffffff168152602001908152602001600020549050919050565b6060600280548060200260200160405190810160405280929190818152602001828054801561038357602002820191906000526020600020905b8160009054906101000a900473ffffffffffffffffffffffffffffffffffffffff1673ffffffffffffffffffffffffffffffffffffffff1681526020019060010190808311610339575b5050505050905090565b6060600480548060200260200160405190810160405280929190818152602001828054801561041157602002820191906000526020600020905b8160009054906101000a900473ffffffffffffffffffffffffffffffffffffffff1673ffffffffffffffffffffffffffffffffffffffff16815260200190600101908083116103c7575b5050505050905090565b60008060009054906101000a900473ffffffffffffffffffffffffffffffffffffffff16905090565b60008090505b6004805490508110156105cd5760006004828154811061046657fe5b9060005260206000200160009054906101000a900473ffffffffffffffffffffffffffffffffffffffff16905060006003905060008090505b60038110156105bd576000600360008573ffffffffffffffffffffffffffffffffffffffff1673ffffffffffffffffffffffffffffffffffffffff16815260200190815260200160002082815481106104f457fe5b9060005260206000200160009054906101000a900473ffffffffffffffffffffffffffffffffffffffff16905082600160008373ffffffffffffffffffffffffffffffffffffffff1673ffffffffffffffffffffffffffffffffffffffff1681526020019081526020016000205401600160008373ffffffffffffffffffffffffffffffffffffffff1673ffffffffffffffffffffffffffffffffffffffff1681526020019081526020016000208190555082806001900393505050808060010191505061049f565b505050808060010191505061044a565b50565b600080600060026000815481106105e357fe5b9060005260206000200160009054906101000a900473ffffffffffffffffffffffffffffffffffffffff169050600060016000600260008154811061062457fe5b9060005260206000200160009054906101000a900473ffffffffffffffffffffffffffffffffffffffff1673ffffffffffffffffffffffffffffffffffffffff1673ffffffffffffffffffffffffffffffffffffffff1681526020019081526020016000205490506000600190505b6002805490508110156107df5760016000600283815481106106b157fe5b9060005260206000200160009054906101000a900473ffffffffffffffffffffffffffffffffffffffff1673ffffffffffffffffffffffffffffffffffffffff1673ffffffffffffffffffffffffffffffffffffffff168152602001908152602001600020548210156107d2576002818154811061072b57fe5b9060005260206000200160009054906101000a900473ffffffffffffffffffffffffffffffffffffffff169250600160006002838154811061076957fe5b9060005260206000200160009054906101000a900473ffffffffffffffffffffffffffffffffffffffff1673ffffffffffffffffffffffffffffffffffffffff1673ffffffffffffffffffffffffffffffffffffffff1681526020019081526020016000205491505b8080600101915050610693565b5081819350935050509091565b6000600360003373ffffffffffffffffffffffffffffffffffffffff1673ffffffffffffffffffffffffffffffffffffffff1681526020019081526020016000208054905011156108a5576040517f08c379a000000000000000000000000000000000000000000000000000000000815260040180806020018281038252601c8152602001807f4c277574696c6973617465757220612064c3a96ac3a020766f74c3a90000000081525060200191505060405180910390fd5b6003828290501015610902576040517f08c379a0000000000000000000000000000000000000000000000000000000008152600401808060200182810382526038815260200180610a9f6038913960400191505060405180910390fd5b8181600360003373ffffffffffffffffffffffffffffffffffffffff1673ffffffffffffffffffffffffffffffffffffffff16815260200190815260200160002091906109509291906109bb565b5060043390806001815401808255809150509060018203906000526020600020016000909192909190916101000a81548173ffffffffffffffffffffffffffffffffffffffff021916908373ffffffffffffffffffffffffffffffffffffffff160217905550505050565b828054828255906000526020600020908101928215610a4a579160200282015b82811115610a4957823573ffffffffffffffffffffffffffffffffffffffff168260006101000a81548173ffffffffffffffffffffffffffffffffffffffff021916908373ffffffffffffffffffffffffffffffffffffffff160217905550916020019190600101906109db565b5b509050610a579190610a5b565b5090565b610a9b91905b80821115610a9757600081816101000a81549073ffffffffffffffffffffffffffffffffffffffff021916905550600101610a61565b5090565b9056fe4c65207461626c6561752064657320766f746573206465206c277574696c697361746575722065737420696e6665726965757220c3a02033a265627a7a723158201de9ce3b1bca3990606341709898eb3fc1e6b7de298ee10389526c012294966364736f6c634300050c0032",
  "source": "pragma solidity >=0.4.22 <0.6.0;\n\ncontract Ballot {\n\n    /* TYPES */\n\n    /* EVENTS */\n\n    /* VARIABLES */\n\n    address owner;\n\n    mapping(address => uint) private candidatesMapping;\n    address[] private candidatesAddress;\n\n    mapping(address => address[]) private votersAddressMapping;\n    address[] private votersAddress;\n\n    /*  FUNCTIONS  */\n\n    constructor(address[] memory candidates) public {\n        owner = msg.sender;\n        for(uint i = 0; i < candidates.length; i++) {\n            candidatesMapping[candidates[i]] = 0;\n            candidatesAddress.push(candidates[i]);\n        }\n    }\n\n    function vote(address[] calldata votes) external alreadyVoted {\n        require(votes.length >= 3, \"Le tableau des votes de l'utilisateur est inferieur à 3\");\n        votersAddressMapping[msg.sender] = votes;\n        votersAddress.push(msg.sender);\n    }\n\n    function processVoteResult() external {\n\n        for(uint i = 0; i < votersAddress.length; i++) {\n\n            address current_voter = votersAddress[i];\n\n            uint weight = 3;\n            for(uint j = 0; j < 3; j++) {\n\n                address candidat = votersAddressMapping[current_voter][j];\n\n                candidatesMapping[candidat] = candidatesMapping[candidat] + weight;\n                weight--;\n\n            }\n        }\n\n    }\n\n    function getWinner() external view returns(address, uint) {\n\n        address currentWinner = candidatesAddress[0];\n        uint currentCountVote = candidatesMapping[candidatesAddress[0]];\n\n        for(uint i = 1; i < candidatesAddress.length; i++) {\n            if(currentCountVote < candidatesMapping[candidatesAddress[i]]) {\n                currentWinner = candidatesAddress[i];\n                currentCountVote = candidatesMapping[candidatesAddress[i]];\n            }\n        }\n\n        return (currentWinner, currentCountVote);\n    }\n\n    /* GETTERS */\n\n    function getCandidatesList() external view returns(address[] memory){\n        return candidatesAddress;\n    }\n\n    function getCandateVoteCount(address candidate) external view returns(uint){\n        return candidatesMapping[candidate];\n    }\n\n    function getVotersAddressList() external view returns(address[] memory){\n        return votersAddress;\n    }\n\n    function getOwner() external view returns(address){\n        return owner;\n    }\n\n    /* PURE FUNCTIONS */\n\n    /* MODIFIERS */\n\n    modifier alreadyVoted() {\n        require(!(votersAddressMapping[msg.sender].length > 0), \"L'utilisateur a déjà voté\");\n        _;\n    }\n\n}\n",
  "sourcePath": "/home/hugo/projets/voteblockchain/contracts/Ballot.sol",
  "compiler": {
    "name": "solc",
    "version": "0.5.12+commit.7709ece9.Emscripten.clang"
  },
  "schemaVersion": "3.0.19",
  "updatedAt": "2020-01-27T09:47:41.280Z",
  "devdoc": {
    "methods": {}
  },
  "userdoc": {
    "methods": {}
  }
}